{
  "address": "0x9fE46736679d2D9a65F0992F2272dE9f3c7fa6e0",
  "abi": [
    {
      "inputs": [
        {
          "internalType": "contract ERC20",
          "name": "_weth",
          "type": "address"
        },
        {
          "internalType": "contract ERC20",
          "name": "_tokenIn",
          "type": "address"
        },
        {
          "internalType": "contract ERC20",
          "name": "_tokenOut",
          "type": "address"
        },
        {
          "internalType": "address",
          "name": "_tokenInRecipient",
          "type": "address"
        },
        {
          "internalType": "uint256",
          "name": "_tokensOutPerInNumerator",
          "type": "uint256"
        },
        {
          "internalType": "uint256",
          "name": "_tokensOutPerInDenominator",
          "type": "uint256"
        }
      ],
      "stateMutability": "nonpayable",
      "type": "constructor"
    },
    {
      "anonymous": false,
      "inputs": [
        {
          "indexed": true,
          "internalType": "address",
          "name": "previousOwner",
          "type": "address"
        },
        {
          "indexed": true,
          "internalType": "address",
          "name": "newOwner",
          "type": "address"
        }
      ],
      "name": "OwnershipTransferred",
      "type": "event"
    },
    {
      "anonymous": false,
      "inputs": [
        {
          "indexed": true,
          "internalType": "address",
          "name": "_from",
          "type": "address"
        },
        {
          "indexed": true,
          "internalType": "address",
          "name": "_to",
          "type": "address"
        },
        {
          "indexed": false,
          "internalType": "uint256",
          "name": "tokenInAmount",
          "type": "uint256"
        },
        {
          "indexed": false,
          "internalType": "uint256",
          "name": "tokenOutAmount",
          "type": "uint256"
        }
      ],
      "name": "SwapTokens",
      "type": "event"
    },
    {
      "inputs": [],
      "name": "owner",
      "outputs": [
        {
          "internalType": "address",
          "name": "",
          "type": "address"
        }
      ],
      "stateMutability": "view",
      "type": "function"
    },
    {
      "inputs": [],
      "name": "renounceOwnership",
      "outputs": [],
      "stateMutability": "nonpayable",
      "type": "function"
    },
    {
      "inputs": [
        {
          "internalType": "uint256",
          "name": "_tokensOutPerInNumerator",
          "type": "uint256"
        },
        {
          "internalType": "uint256",
          "name": "_tokensOutPerInDenominator",
          "type": "uint256"
        }
      ],
      "name": "setPrice",
      "outputs": [],
      "stateMutability": "nonpayable",
      "type": "function"
    },
    {
      "inputs": [
        {
          "internalType": "uint256",
          "name": "tokenInAmount",
          "type": "uint256"
        },
        {
          "internalType": "address",
          "name": "from",
          "type": "address"
        },
        {
          "internalType": "address",
          "name": "to",
          "type": "address"
        }
      ],
      "name": "swapTokens",
      "outputs": [
        {
          "internalType": "uint256",
          "name": "tokenOutAmount",
          "type": "uint256"
        }
      ],
      "stateMutability": "nonpayable",
      "type": "function"
    },
    {
      "inputs": [],
      "name": "tokenIn",
      "outputs": [
        {
          "internalType": "contract ERC20",
          "name": "",
          "type": "address"
        }
      ],
      "stateMutability": "view",
      "type": "function"
    },
    {
      "inputs": [],
      "name": "tokenInRecipient",
      "outputs": [
        {
          "internalType": "address",
          "name": "",
          "type": "address"
        }
      ],
      "stateMutability": "view",
      "type": "function"
    },
    {
      "inputs": [],
      "name": "tokenOut",
      "outputs": [
        {
          "internalType": "contract ERC20",
          "name": "",
          "type": "address"
        }
      ],
      "stateMutability": "view",
      "type": "function"
    },
    {
      "inputs": [],
      "name": "tokensOutPerInDenominator",
      "outputs": [
        {
          "internalType": "uint256",
          "name": "",
          "type": "uint256"
        }
      ],
      "stateMutability": "view",
      "type": "function"
    },
    {
      "inputs": [],
      "name": "tokensOutPerInNumerator",
      "outputs": [
        {
          "internalType": "uint256",
          "name": "",
          "type": "uint256"
        }
      ],
      "stateMutability": "view",
      "type": "function"
    },
    {
      "inputs": [
        {
          "internalType": "address",
          "name": "newOwner",
          "type": "address"
        }
      ],
      "name": "transferOwnership",
      "outputs": [],
      "stateMutability": "nonpayable",
      "type": "function"
    },
    {
      "inputs": [],
      "name": "weth",
      "outputs": [
        {
          "internalType": "contract ERC20",
          "name": "",
          "type": "address"
        }
      ],
      "stateMutability": "view",
      "type": "function"
    }
  ],
  "transactionHash": "0xa0283a05243bcaad3ff45fa897b10457645b2ad54078299e45943b354fa0c35b",
  "args": [
    "0x5FbDB2315678afecb367f032d93F642f64180aa3",
    "0x5FbDB2315678afecb367f032d93F642f64180aa3",
    "0xe7f1725E7734CE288F8367e1Bb143E90bb3F0512",
    "0xf39Fd6e51aad88F6F4ce6aB8827279cffFb92266",
    12,
    100
  ],
  "numDeployments": 1,
  "solcInputHash": "57d21c8d71f8361a34fc30c5939a9d5c",
  "bytecode": "0x60e06040523480156200001157600080fd5b5060405162000d9538038062000d95833981016040819052620000349162000276565b6200003f33620000d8565b6001600160a01b0386166200005357600080fd5b6001600160a01b0385166200006757600080fd5b6001600160a01b0384166200007b57600080fd5b6001600160a01b0383166200008f57600080fd5b6001600160a01b0386811660c05285811660805284811660a052600380546001600160a01b031916918516919091179055620000cc828262000128565b505050505050620002f2565b600080546001600160a01b038381166001600160a01b0319831681178455604051919092169283917f8be0079c531659141344cd1fd0a4f28419497f9722a3daafe3b4186f6b6457e09190a35050565b6000546001600160a01b03163314620001885760405162461bcd60e51b815260206004820181905260248201527f4f776e61626c653a2063616c6c6572206973206e6f7420746865206f776e657260448201526064015b60405180910390fd5b60008211620001ec5760405162461bcd60e51b815260206004820152602960248201527f5f746f6b656e734f7574506572496e4e756d657261746f72206d75737420626560448201526820706f73697469766560b81b60648201526084016200017f565b60008111620002525760405162461bcd60e51b815260206004820152602b60248201527f5f746f6b656e734f7574506572496e44656e6f6d696e61746f72206d7573742060448201526a626520706f73697469766560a81b60648201526084016200017f565b600191909155600255565b6001600160a01b03811681146200027357600080fd5b50565b60008060008060008060c087890312156200029057600080fd5b86516200029d816200025d565b6020880151909650620002b0816200025d565b6040880151909550620002c3816200025d565b6060880151909450620002d6816200025d565b809350506080870151915060a087015190509295509295509295565b60805160a05160c051610a5e6200033760003960006101030152600081816101830152818161039401526105fc01526000818161012a01526104d30152610a5e6000f3fe608060405234801561001057600080fd5b50600436106100c95760003560e01c8063ab65bdd711610081578063f2fde38b1161005b578063f2fde38b146101ae578063f70d1d98146101c1578063f7d97577146101d457600080fd5b8063ab65bdd714610167578063d0202d3b1461017e578063e8efeaa6146101a557600080fd5b80636daf390b116100b25780636daf390b14610125578063715018a61461014c5780638da5cb5b1461015657600080fd5b806334bbe835146100ce5780633fc8cef3146100fe575b600080fd5b6003546100e1906001600160a01b031681565b6040516001600160a01b0390911681526020015b60405180910390f35b6100e17f000000000000000000000000000000000000000000000000000000000000000081565b6100e17f000000000000000000000000000000000000000000000000000000000000000081565b6101546101e7565b005b6000546001600160a01b03166100e1565b61017060025481565b6040519081526020016100f5565b6100e17f000000000000000000000000000000000000000000000000000000000000000081565b61017060015481565b6101546101bc366004610925565b610252565b6101706101cf366004610940565b610334565b6101546101e236600461097c565b610731565b6000546001600160a01b031633146102465760405162461bcd60e51b815260206004820181905260248201527f4f776e61626c653a2063616c6c6572206973206e6f7420746865206f776e657260448201526064015b60405180910390fd5b6102506000610882565b565b6000546001600160a01b031633146102ac5760405162461bcd60e51b815260206004820181905260248201527f4f776e61626c653a2063616c6c6572206973206e6f7420746865206f776e6572604482015260640161023d565b6001600160a01b0381166103285760405162461bcd60e51b815260206004820152602660248201527f4f776e61626c653a206e6577206f776e657220697320746865207a65726f206160448201527f6464726573730000000000000000000000000000000000000000000000000000606482015260840161023d565b61033181610882565b50565b600080610358600254610352600154886108ea90919063ffffffff16565b906108fd565b6040517f70a082310000000000000000000000000000000000000000000000000000000081523060048201529091506000906001600160a01b037f000000000000000000000000000000000000000000000000000000000000000016906370a082319060240160206040518083038186803b1580156103d657600080fd5b505afa1580156103ea573d6000803e3d6000fd5b505050506040513d601f19601f8201168201806040525081019061040e919061099e565b9050818110156104865760405162461bcd60e51b815260206004820152602660248201527f5468657265206973206e6f7420656e6f75676820746f6b656e7320746f20737760448201527f6170206f75740000000000000000000000000000000000000000000000000000606482015260840161023d565b6003546040517f23b872dd0000000000000000000000000000000000000000000000000000000081526001600160a01b0387811660048301529182166024820152604481018890526000917f000000000000000000000000000000000000000000000000000000000000000016906323b872dd90606401602060405180830381600087803b15801561051757600080fd5b505af115801561052b573d6000803e3d6000fd5b505050506040513d601f19601f8201168201806040525081019061054f91906109b7565b9050806105c45760405162461bcd60e51b815260206004820152602160248201527f4661696c656420746f207265636569766520746f6b656e2066726f6d2075736560448201527f7200000000000000000000000000000000000000000000000000000000000000606482015260840161023d565b6040517fa9059cbb000000000000000000000000000000000000000000000000000000008152336004820152602481018490526000907f00000000000000000000000000000000000000000000000000000000000000006001600160a01b03169063a9059cbb90604401602060405180830381600087803b15801561064857600080fd5b505af115801561065c573d6000803e3d6000fd5b505050506040513d601f19601f8201168201806040525081019061068091906109b7565b9050806106cf5760405162461bcd60e51b815260206004820181905260248201527f4661696c656420746f207472616e7366657220746f6b656e20746f2075736572604482015260640161023d565b856001600160a01b0316876001600160a01b03167f8dfb86999e54ac203a91b7a8882a5b866d915de0b568e6125956fa6416536b218a8760405161071d929190918252602082015260400190565b60405180910390a350919695505050505050565b6000546001600160a01b0316331461078b5760405162461bcd60e51b815260206004820181905260248201527f4f776e61626c653a2063616c6c6572206973206e6f7420746865206f776e6572604482015260640161023d565b600082116108015760405162461bcd60e51b815260206004820152602960248201527f5f746f6b656e734f7574506572496e4e756d657261746f72206d75737420626560448201527f20706f7369746976650000000000000000000000000000000000000000000000606482015260840161023d565b600081116108775760405162461bcd60e51b815260206004820152602b60248201527f5f746f6b656e734f7574506572496e44656e6f6d696e61746f72206d7573742060448201527f626520706f736974697665000000000000000000000000000000000000000000606482015260840161023d565b600191909155600255565b600080546001600160a01b038381167fffffffffffffffffffffffff0000000000000000000000000000000000000000831681178455604051919092169283917f8be0079c531659141344cd1fd0a4f28419497f9722a3daafe3b4186f6b6457e09190a35050565b60006108f682846109d9565b9392505050565b60006108f68284610a06565b80356001600160a01b038116811461092057600080fd5b919050565b60006020828403121561093757600080fd5b6108f682610909565b60008060006060848603121561095557600080fd5b8335925061096560208501610909565b915061097360408501610909565b90509250925092565b6000806040838503121561098f57600080fd5b50508035926020909101359150565b6000602082840312156109b057600080fd5b5051919050565b6000602082840312156109c957600080fd5b815180151581146108f657600080fd5b6000816000190483118215151615610a0157634e487b7160e01b600052601160045260246000fd5b500290565b600082610a2357634e487b7160e01b600052601260045260246000fd5b50049056fea2646970667358221220c0eea97878db7dbbde5469762816c4e54f2a9e2ebe8c8fca443979d91a3df6a164736f6c63430008090033",
  "devdoc": {
    "kind": "dev",
    "methods": {
      "owner()": {
        "details": "Returns the address of the current owner."
      },
      "renounceOwnership()": {
        "details": "Leaves the contract without owner. It will not be possible to call `onlyOwner` functions anymore. Can only be called by the current owner. NOTE: Renouncing ownership will leave the contract without an owner, thereby removing any functionality that is only available to the owner."
      },
      "transferOwnership(address)": {
        "details": "Transfers ownership of the contract to a new account (`newOwner`). Can only be called by the current owner."
      }
    },
    "version": 1
  },
  "userdoc": {
    "kind": "user",
    "methods": {},
    "version": 1
  },
  "storageLayout": {
    "storage": [
      {
        "astId": 7,
        "contract": "contracts/TokenVendor.sol:TokenVendor",
        "label": "_owner",
        "offset": 0,
        "slot": "0",
        "type": "t_address"
      },
      {
        "astId": 1099,
        "contract": "contracts/TokenVendor.sol:TokenVendor",
        "label": "tokensOutPerInNumerator",
        "offset": 0,
        "slot": "1",
        "type": "t_uint256"
      },
      {
        "astId": 1101,
        "contract": "contracts/TokenVendor.sol:TokenVendor",
        "label": "tokensOutPerInDenominator",
        "offset": 0,
        "slot": "2",
        "type": "t_uint256"
      },
      {
        "astId": 1112,
        "contract": "contracts/TokenVendor.sol:TokenVendor",
        "label": "tokenInRecipient",
        "offset": 0,
        "slot": "3",
        "type": "t_address"
      }
    ],
    "types": {
      "t_address": {
        "encoding": "inplace",
        "label": "address",
        "numberOfBytes": "20"
      },
      "t_uint256": {
        "encoding": "inplace",
        "label": "uint256",
        "numberOfBytes": "32"
      }
    }
  }
}