{
  "address": "0x5C615c47edd415D6d71800D94d3d3F370B2F304c",
  "abi": [
    {
      "inputs": [
        {
          "internalType": "contract ERC20",
          "name": "_weth",
          "type": "address"
        },
        {
          "internalType": "contract ERC20",
          "name": "_tokenIn",
          "type": "address"
        },
        {
          "internalType": "contract ERC20",
          "name": "_tokenOut",
          "type": "address"
        },
        {
          "internalType": "address",
          "name": "_tokenInRecipient",
          "type": "address"
        },
        {
          "internalType": "uint256",
          "name": "_tokensOutPerInNumerator",
          "type": "uint256"
        },
        {
          "internalType": "uint256",
          "name": "_tokensOutPerInDenominator",
          "type": "uint256"
        }
      ],
      "stateMutability": "nonpayable",
      "type": "constructor"
    },
    {
      "anonymous": false,
      "inputs": [
        {
          "indexed": true,
          "internalType": "address",
          "name": "previousOwner",
          "type": "address"
        },
        {
          "indexed": true,
          "internalType": "address",
          "name": "newOwner",
          "type": "address"
        }
      ],
      "name": "OwnershipTransferred",
      "type": "event"
    },
    {
      "anonymous": false,
      "inputs": [
        {
          "indexed": true,
          "internalType": "address",
          "name": "_to",
          "type": "address"
        },
        {
          "indexed": false,
          "internalType": "uint256",
          "name": "_tokenInAmount",
          "type": "uint256"
        },
        {
          "indexed": false,
          "internalType": "uint256",
          "name": "_tokenOutAmount",
          "type": "uint256"
        }
      ],
      "name": "SwapTokens",
      "type": "event"
    },
    {
      "inputs": [],
      "name": "owner",
      "outputs": [
        {
          "internalType": "address",
          "name": "",
          "type": "address"
        }
      ],
      "stateMutability": "view",
      "type": "function"
    },
    {
      "inputs": [],
      "name": "renounceOwnership",
      "outputs": [],
      "stateMutability": "nonpayable",
      "type": "function"
    },
    {
      "inputs": [
        {
          "internalType": "uint256",
          "name": "_tokensOutPerInNumerator",
          "type": "uint256"
        },
        {
          "internalType": "uint256",
          "name": "_tokensOutPerInDenominator",
          "type": "uint256"
        }
      ],
      "name": "setPrice",
      "outputs": [],
      "stateMutability": "nonpayable",
      "type": "function"
    },
    {
      "inputs": [
        {
          "internalType": "uint256",
          "name": "_tokenInAmount",
          "type": "uint256"
        }
      ],
      "name": "swapTokens",
      "outputs": [
        {
          "internalType": "uint256",
          "name": "_tokenOutAmount",
          "type": "uint256"
        }
      ],
      "stateMutability": "nonpayable",
      "type": "function"
    },
    {
      "inputs": [],
      "name": "tokenIn",
      "outputs": [
        {
          "internalType": "contract ERC20",
          "name": "",
          "type": "address"
        }
      ],
      "stateMutability": "view",
      "type": "function"
    },
    {
      "inputs": [],
      "name": "tokenInRecipient",
      "outputs": [
        {
          "internalType": "address",
          "name": "",
          "type": "address"
        }
      ],
      "stateMutability": "view",
      "type": "function"
    },
    {
      "inputs": [],
      "name": "tokenOut",
      "outputs": [
        {
          "internalType": "contract ERC20",
          "name": "",
          "type": "address"
        }
      ],
      "stateMutability": "view",
      "type": "function"
    },
    {
      "inputs": [],
      "name": "tokensOutPerInDenominator",
      "outputs": [
        {
          "internalType": "uint256",
          "name": "",
          "type": "uint256"
        }
      ],
      "stateMutability": "view",
      "type": "function"
    },
    {
      "inputs": [],
      "name": "tokensOutPerInNumerator",
      "outputs": [
        {
          "internalType": "uint256",
          "name": "",
          "type": "uint256"
        }
      ],
      "stateMutability": "view",
      "type": "function"
    },
    {
      "inputs": [
        {
          "internalType": "address",
          "name": "newOwner",
          "type": "address"
        }
      ],
      "name": "transferOwnership",
      "outputs": [],
      "stateMutability": "nonpayable",
      "type": "function"
    },
    {
      "inputs": [],
      "name": "weth",
      "outputs": [
        {
          "internalType": "contract ERC20",
          "name": "",
          "type": "address"
        }
      ],
      "stateMutability": "view",
      "type": "function"
    },
    {
      "inputs": [
        {
          "internalType": "address",
          "name": "_tokenRecipient",
          "type": "address"
        },
        {
          "internalType": "uint256",
          "name": "_amount",
          "type": "uint256"
        }
      ],
      "name": "withdrawToken",
      "outputs": [],
      "stateMutability": "nonpayable",
      "type": "function"
    }
  ],
  "transactionHash": "0xe63fe6e0a30c0edb2df754400794a84da4f386df93ba060eeb316709abff23f2",
  "args": [
    "0x4094Fca1523757eAE0BAEF002A27791F77EdEC0f",
    "0xed1ABbAb02049c4B14336dbf0c3080D626DdaAFB",
    "0xCA1dD1342aA4a8B4542De0e06f03032222032619",
    "0xB70e5298fb3ff28942309218e444F529964cd691",
    12,
    100
  ],
  "numDeployments": 2,
  "solcInputHash": "be68be3b540510403f93f314b811a61e",
  "bytecode": "0x60e06040523480156200001157600080fd5b5060405162000f6138038062000f61833981016040819052620000349162000276565b6200003f33620000d8565b6001600160a01b0386166200005357600080fd5b6001600160a01b0385166200006757600080fd5b6001600160a01b0384166200007b57600080fd5b6001600160a01b0383166200008f57600080fd5b6001600160a01b0386811660c05285811660805284811660a052600380546001600160a01b031916918516919091179055620000cc828262000128565b505050505050620002f2565b600080546001600160a01b038381166001600160a01b0319831681178455604051919092169283917f8be0079c531659141344cd1fd0a4f28419497f9722a3daafe3b4186f6b6457e09190a35050565b6000546001600160a01b03163314620001885760405162461bcd60e51b815260206004820181905260248201527f4f776e61626c653a2063616c6c6572206973206e6f7420746865206f776e657260448201526064015b60405180910390fd5b60008211620001ec5760405162461bcd60e51b815260206004820152602960248201527f5f746f6b656e734f7574506572496e4e756d657261746f72206d75737420626560448201526820706f73697469766560b81b60648201526084016200017f565b60008111620002525760405162461bcd60e51b815260206004820152602b60248201527f5f746f6b656e734f7574506572496e44656e6f6d696e61746f72206d7573742060448201526a626520706f73697469766560a81b60648201526084016200017f565b600191909155600255565b6001600160a01b03811681146200027357600080fd5b50565b60008060008060008060c087890312156200029057600080fd5b86516200029d816200025d565b6020880151909650620002b0816200025d565b6040880151909550620002c3816200025d565b6060880151909450620002d6816200025d565b809350506080870151915060a087015190509295509295509295565b60805160a05160c051610c236200033e600039600061010e0152600081816101a101528181610313015281816106e2015261093b01526000818161013501526108210152610c236000f3fe608060405234801561001057600080fd5b50600436106100d45760003560e01c8063ab65bdd711610081578063f2fde38b1161005b578063f2fde38b146101cc578063f7d97577146101df578063fe784eaa146101f257600080fd5b8063ab65bdd714610185578063d0202d3b1461019c578063e8efeaa6146101c357600080fd5b8063715018a6116100b2578063715018a6146101575780638da5cb5b146101615780639e281a981461017257600080fd5b806334bbe835146100d95780633fc8cef3146101095780636daf390b14610130575b600080fd5b6003546100ec906001600160a01b031681565b6040516001600160a01b0390911681526020015b60405180910390f35b6100ec7f000000000000000000000000000000000000000000000000000000000000000081565b6100ec7f000000000000000000000000000000000000000000000000000000000000000081565b61015f610205565b005b6000546001600160a01b03166100ec565b61015f610180366004610adc565b610270565b61018e60025481565b604051908152602001610100565b6100ec7f000000000000000000000000000000000000000000000000000000000000000081565b61018e60015481565b61015f6101da366004610b06565b610450565b61015f6101ed366004610b28565b610532565b61018e610200366004610b4a565b610683565b6000546001600160a01b031633146102645760405162461bcd60e51b815260206004820181905260248201527f4f776e61626c653a2063616c6c6572206973206e6f7420746865206f776e657260448201526064015b60405180910390fd5b61026e6000610a58565b565b6000546001600160a01b031633146102ca5760405162461bcd60e51b815260206004820181905260248201527f4f776e61626c653a2063616c6c6572206973206e6f7420746865206f776e6572604482015260640161025b565b600081116102d757600080fd5b6001600160a01b0382166102ea57600080fd5b60405163a9059cbb60e01b81526001600160a01b038381166004830152602482018390526000917f00000000000000000000000000000000000000000000000000000000000000009091169063a9059cbb90604401602060405180830381600087803b15801561035957600080fd5b505af115801561036d573d6000803e3d6000fd5b505050506040513d601f19601f820116820180604052508101906103919190610b63565b9050806104065760405162461bcd60e51b815260206004820152602560248201527f4661696c656420746f207472616e7366657220746f6b656e20746f207265636960448201527f7069656e74000000000000000000000000000000000000000000000000000000606482015260840161025b565b6040805160008152602081018490526001600160a01b038516917f8c2d42ad364c622e66bf9cff618e1c5d8da64a273733c85be383b6e429ffa4a3910160405180910390a2505050565b6000546001600160a01b031633146104aa5760405162461bcd60e51b815260206004820181905260248201527f4f776e61626c653a2063616c6c6572206973206e6f7420746865206f776e6572604482015260640161025b565b6001600160a01b0381166105265760405162461bcd60e51b815260206004820152602660248201527f4f776e61626c653a206e6577206f776e657220697320746865207a65726f206160448201527f6464726573730000000000000000000000000000000000000000000000000000606482015260840161025b565b61052f81610a58565b50565b6000546001600160a01b0316331461058c5760405162461bcd60e51b815260206004820181905260248201527f4f776e61626c653a2063616c6c6572206973206e6f7420746865206f776e6572604482015260640161025b565b600082116106025760405162461bcd60e51b815260206004820152602960248201527f5f746f6b656e734f7574506572496e4e756d657261746f72206d75737420626560448201527f20706f7369746976650000000000000000000000000000000000000000000000606482015260840161025b565b600081116106785760405162461bcd60e51b815260206004820152602b60248201527f5f746f6b656e734f7574506572496e44656e6f6d696e61746f72206d7573742060448201527f626520706f736974697665000000000000000000000000000000000000000000606482015260840161025b565b600191909155600255565b60025460015460009133918291849161069c9087610b85565b6106a69190610bb2565b6040517f70a082310000000000000000000000000000000000000000000000000000000081523060048201529091506000906001600160a01b037f000000000000000000000000000000000000000000000000000000000000000016906370a082319060240160206040518083038186803b15801561072457600080fd5b505afa158015610738573d6000803e3d6000fd5b505050506040513d601f19601f8201168201806040525081019061075c9190610bd4565b9050818110156107d45760405162461bcd60e51b815260206004820152602660248201527f5468657265206973206e6f7420656e6f75676820746f6b656e7320746f20737760448201527f6170206f75740000000000000000000000000000000000000000000000000000606482015260840161025b565b6003546040517f23b872dd0000000000000000000000000000000000000000000000000000000081526001600160a01b0385811660048301529182166024820152604481018890526000917f000000000000000000000000000000000000000000000000000000000000000016906323b872dd90606401602060405180830381600087803b15801561086557600080fd5b505af1158015610879573d6000803e3d6000fd5b505050506040513d601f19601f8201168201806040525081019061089d9190610b63565b9050806109125760405162461bcd60e51b815260206004820152602160248201527f4661696c656420746f207265636569766520746f6b656e2066726f6d2075736560448201527f7200000000000000000000000000000000000000000000000000000000000000606482015260840161025b565b60405163a9059cbb60e01b81526001600160a01b038681166004830152602482018590526000917f00000000000000000000000000000000000000000000000000000000000000009091169063a9059cbb90604401602060405180830381600087803b15801561098157600080fd5b505af1158015610995573d6000803e3d6000fd5b505050506040513d601f19601f820116820180604052508101906109b99190610b63565b905080610a085760405162461bcd60e51b815260206004820181905260248201527f4661696c656420746f207472616e7366657220746f6b656e20746f2075736572604482015260640161025b565b60408051898152602081018690526001600160a01b038816917f8c2d42ad364c622e66bf9cff618e1c5d8da64a273733c85be383b6e429ffa4a3910160405180910390a250919695505050505050565b600080546001600160a01b038381167fffffffffffffffffffffffff0000000000000000000000000000000000000000831681178455604051919092169283917f8be0079c531659141344cd1fd0a4f28419497f9722a3daafe3b4186f6b6457e09190a35050565b80356001600160a01b0381168114610ad757600080fd5b919050565b60008060408385031215610aef57600080fd5b610af883610ac0565b946020939093013593505050565b600060208284031215610b1857600080fd5b610b2182610ac0565b9392505050565b60008060408385031215610b3b57600080fd5b50508035926020909101359150565b600060208284031215610b5c57600080fd5b5035919050565b600060208284031215610b7557600080fd5b81518015158114610b2157600080fd5b6000816000190483118215151615610bad57634e487b7160e01b600052601160045260246000fd5b500290565b600082610bcf57634e487b7160e01b600052601260045260246000fd5b500490565b600060208284031215610be657600080fd5b505191905056fea2646970667358221220e70e65fcc05275f63eb1792eadd71846dceae48e054891da7bf1b69007e2cf5164736f6c63430008090033",
  "devdoc": {
    "kind": "dev",
    "methods": {
      "owner()": {
        "details": "Returns the address of the current owner."
      },
      "renounceOwnership()": {
        "details": "Leaves the contract without owner. It will not be possible to call `onlyOwner` functions anymore. Can only be called by the current owner. NOTE: Renouncing ownership will leave the contract without an owner, thereby removing any functionality that is only available to the owner."
      },
      "transferOwnership(address)": {
        "details": "Transfers ownership of the contract to a new account (`newOwner`). Can only be called by the current owner."
      }
    },
    "version": 1
  },
  "userdoc": {
    "kind": "user",
    "methods": {},
    "version": 1
  },
  "storageLayout": {
    "storage": [
      {
        "astId": 7,
        "contract": "contracts/TokenVendor.sol:TokenVendor",
        "label": "_owner",
        "offset": 0,
        "slot": "0",
        "type": "t_address"
      },
      {
        "astId": 783,
        "contract": "contracts/TokenVendor.sol:TokenVendor",
        "label": "tokensOutPerInNumerator",
        "offset": 0,
        "slot": "1",
        "type": "t_uint256"
      },
      {
        "astId": 785,
        "contract": "contracts/TokenVendor.sol:TokenVendor",
        "label": "tokensOutPerInDenominator",
        "offset": 0,
        "slot": "2",
        "type": "t_uint256"
      },
      {
        "astId": 796,
        "contract": "contracts/TokenVendor.sol:TokenVendor",
        "label": "tokenInRecipient",
        "offset": 0,
        "slot": "3",
        "type": "t_address"
      }
    ],
    "types": {
      "t_address": {
        "encoding": "inplace",
        "label": "address",
        "numberOfBytes": "20"
      },
      "t_uint256": {
        "encoding": "inplace",
        "label": "uint256",
        "numberOfBytes": "32"
      }
    }
  }
}